:020000040800F2
:10000000D010002045010008D5070008750400083D
:10001000D1070008B1010008CD1000080000000061
:10002000000000000000000000000000150B0008A8
:10003000550300080000000049080008010C0008F2
:100040005F0100085F0100085F0100085F01000810
:100050005F0100085F0100085F0100085F01000800
:100060005F0100085F0100085F0100085F010008F0
:100070005F0100085F0100085F0100085F010008E0
:100080005F0100085F0100085F0100085F010008D0
:100090005F0100085F0100085F0100085F010008C0
:1000A0005F0100085F0100085F0100085F010008B0
:1000B0005F0100085F0100085F0100085F010008A0
:1000C0005F0100085F0100085F0100085F01000890
:1000D0005F010008BD0D0008E10E0008F50E0008E4
:1000E0005F0100085F0100085F0100085F01000870
:1000F0005F0100085F0100085F0100085F01000860
:100100005F0100085F0100085F0100085F0100084F
:100110005F0100085F0100085F0100085F0100083F
:100120005F0100085F0100085F0100085F0100082F
:10013000DFF80CD000F02AF800480047DD12000874
:10014000D01000200648804706480047FEE7FEE73B
:10015000FEE7FEE7FEE7FEE7FEE7FEE7FEE7FEE777
:10016000490C000831010008D2B201E000F8012B6F
:10017000491EFBD270470022F6E710B513460A4627
:1001800004461946FFF7F0FF204610BD064C074D08
:1001900006E0E06840F0010394E807009847103457
:1001A000AC42F6D3FFF7C8FFB4150008D415000819
:1001B00000BFFEE721B1026842F00102026004E0E4
:1001C00002684FF6FE731A400260704701684FF6EE
:1001D000FE72114001600021016041608160C160D8
:1001E0004B49884208D14A490839496841F00F0112
:1001F000474A083A51608AE045491431884208D19B
:1002000043490839496841F0F001414A083A5160D0
:100210007DE03F492831884208D13D490839496885
:1002200041F470613A4A083A516070E038493C3113
:10023000884208D136490839496841F47041344A46
:10024000083A516063E032495031884208D1304960
:100250000839496841F470212D4A083A516056E046
:100260002B496431884208D129490839496841F449
:100270007001274A083A516049E02549783188429F
:1002800008D123490839496841F07061204A083A89
:1002900051603CE01F49884206D1011F096841F0C6
:1002A0000F01021F116032E01A491431884208D14F
:1002B0001849091F096841F0F001164A121F116020
:1002C00025E014492831884208D11249091F0968DC
:1002D00041F470610F4A121F116018E00D493C3162
:1002E000884208D10B49091F096841F47041094A45
:1002F000121F11600BE007495031884207D10549B0
:10030000091F096841F47021024A121F11607047E9
:10031000080002400804024010B50022026847F6B7
:10032000F0739A430C6A8B6823430C6923434C692E
:1003300023438C692343CC6923434C6A23438C6A4F
:1003400023431A430260CB6843600B6883604B68A9
:10035000C36010BD70472DE9F0410246002500261C
:10036000002000230024002791F803C00CF00F05A3
:1003700091F803C00CF0100CBCF1000F03D091F801
:1003800002C04CEA050591F800C0BCF1000F31D065
:10039000146800202BE04FF0010C0CFA00F3B1F8C8
:1003A00000C00CEA03069E4220D183004FF00F0CE0
:1003B0000CFA03F7BC4305FA03FC4CEA040491F879
:1003C00003C0BCF1280F06D14FF0010C0CFA00FC61
:1003D000C2F814C00AE091F803C0BCF1480F05D17F
:1003E0004FF0010C0CFA00FCC2F810C0401C0828A9
:1003F000D1D31460B1F800C0BCF1FF0F34DD5468F4
:1004000000202EE000F1080C4FF0010808FA0CF370
:10041000B1F800C00CEA03069E4221D183004FF0E0
:100420000F0C0CFA03F7BC4305FA03FC4CEA040476
:1004300091F803C0BCF1280F05D100F1080C08FAAF
:100440000CF8C2F8148091F803C0BCF1480F07D132
:1004500000F1080C4FF0010808FA0CF8C2F81080FF
:10046000401C0828CED35460BDE8F081416170473C
:100470000161704700BFFEE7FEB506460025002477
:1004800000200290012700F01FFF00F0E1F8052096
:1004900000F006FF0021032000F0AEF80A2000F073
:1004A000FFFE012527E06A460121284600F0DAF820
:1004B00002AA0821684600F033FEC0B9002412E009
:1004C0001DF81400012101EB44011DF8011000EB9F
:1004D000012081B206EB4402681E00EB400022F8C6
:1004E0001010601CC4B2032CEADB012701E00027D6
:1004F00003E0681CC5B2052DD5DB00BF3846FEBD44
:1005000010B501240A4800F047F818B909A000F016
:10051000DFFD00240E48FFF7AFFF20B90DA000F06B
:10052000D7FD002402E013A000F0D2FD204610BD4C
:100530009000002067657420746F74616C20766F82
:100540006C74616765206661696C6564210A0000EE
:10055000A00C00206765742070657263656C6C2068
:10056000766F6C74616765206661696C6564210AE9
:10057000000000006765742070657263656C6C2014
:10058000766F6C74616765207375636365737366FA
:10059000756C210A000000003EB5044600F094FE90
:1005A0000121022000F03FF8012000F079FE6A46A8
:1005B0000121084600F0C6F802AA0821684600F0AA
:1005C000AFFD38B9BDF80000208003A000F080FD29
:1005D00001203EBD0020FCE767657420746F7461E4
:1005E0006C20766F6C7461676520737563636573E7
:1005F0007366756C210A0000F8B504460D46C4F315
:10060000400646F004008DF80000E007060E05F0F5
:1006100001006F2101EB001030438DF801006846A6
:1006200000F0B4FDF8BDF8B504460D46C4F340062D
:10063000301D8DF80000E007060E06F16800284422
:10064000C0B28DF80100684600F0A0FDF8BD0000C2
:1006500008B503A000680090684600F097FD08BD4B
:10066000071100002DE9F84304460E4617464FF0E7
:100670000808012C06D104208DF8010000208DF817
:10068000000031E0022C06D106208DF80100002088
:100690008DF8000028E0032C06D108208DF8010019
:1006A00000208DF800001FE0042C06D10A208DF8F0
:1006B000010000208DF8000016E0052C06D109206D
:1006C0008DF8010000208DF800000DE0062C06D109
:1006D0000B208DF8010000208DF8000004E00020C0
:1006E0008DF801008DF800009DF80000134909788D
:1006F00008438DF800006946022000F001FE05461F
:1007000028128DF80200E8B28DF8030010210C4881
:10071000FFF7ACFE022000F090FDF006030E3A4613
:100720000421684600F015FE022000F086FD10212D
:100730000348FFF79DFEBDE8F88300001400002089
:10074000000801402DE9F84304460E4617464FF0D5
:100750000808012C06D110208DF8010000208DF82A
:1007600000000EE0022C06D112208DF801000020BE
:100770008DF8000005E010208DF8010000208DF8B4
:1007800000009DF800001049097808438DF800002A
:100790006946022000F0B4FD054628128DF80200DB
:1007A000E8B28DF8030010210848FFF75FFEF0065D
:1007B000030E3A460421684600F0CBFD10210348A1
:1007C000FFF756FEBDE8F883140000200008014042
:1007D00000BFFEE77047000070B5002100230F2224
:1007E000C47804B3154C246804F4E064C4F5E064F0
:1007F000210AC1F10403CA40447804FA03F1847861
:100800001440214309010E4C0678A155047804F0E8
:100810001F050124AC4005786D11AD0005F1E02500
:10082000C5F8004109E0047804F01F050124AC403C
:10083000044D0678761145F8264070BD0CED00E0B9
:1008400000E400E080E100E07047000029B1064AC2
:1008500052690243044B5A6104E0034A52698243DD
:10086000014B5A61704700000010024029B1064A4E
:10087000D2690243044BDA6104E0034AD26982433D
:10088000014BDA61704700000010024029B1064AAE
:1008900092690243044B9A6104E0034A92698243DD
:1008A000014B9A61704700000010024030B50021F2
:1008B0000022002400232D4D6D6805F00C0121B1AC
:1008C000042905D0082923D105E0294D056022E03F
:1008D000274D05601FE0254D6D6805F47012234D0E
:1008E0006D6805F48034022505EB92421CB9214D58
:1008F000554305600BE01D4D6D6805F400351DB1D5
:100900001C4D5543056002E0194D5543056002E05A
:10091000174D056000BF00BF144D6D6805F0F00174
:100920000909154D6B5C0568DD4045600F4D6D682C
:1009300005F4E061090A104D6B5C4568DD40856097
:100940000A4D6D6805F46051C90A0B4D6B5C456832
:10095000DD40C560054D6D6805F44041890B074DCC
:100960006B5CC568B5FBF3F5056130BD0010024056
:1009700000127A0000093D00000000201000002055
:1009800030B50B465D1EEAB2002107E0445C855C91
:10099000455484544D1CE9B2551EEAB29142F5DB30
:1009A00030BD000000B587B001210420FFF76EFFC5
:1009B0001020ADF818008DF81B0003208DF81A00E8
:1009C00006A92148FFF7C7FC10211F48FFF750FD7B
:1009D000012141F20400FFF759FFE020ADF81800B3
:1009E00018208DF81B0003208DF81A0006A9164860
:1009F000FFF7B1FCE0211448FFF73AFD0020ADF805
:100A000004004FF48270ADF806000020ADF8080035
:100A10000220ADF80A000120ADF80C004002ADF84C
:100A20000E003020ADF810000020ADF812000720B5
:100A3000ADF8140001A9054800F04EF80121034863
:100A400000F030F807B000BD000801400030014060
:100A500070B50546002405E0601CC4B2C82C01DD59
:100A6000002070BD02210E4800F028F80028F3D0C5
:100A700029460B4800F02EF8002405E0601CC4B2A3
:100A8000C82C01DD0020ECE70121054800F016F834
:100A90000028F3D0024800F01AF8C0B2E1E70000E5
:100AA0000030014021B1028842F04002028004E09F
:100AB00002884FF6BF731A4002807047024600203A
:100AC00013890B400BB1012000E000207047014664
:100AD000888970478181704710B50022028802F42E
:100AE00041520B884C8823438C882343CC88234372
:100AF0000C8923434C8923438C892343CC8923438A
:100B00001A430280838B4FF2FF74234083830B8A46
:100B1000038210BD704710B500F002F810BD000050
:100B20000CB50020019000903348006840F48030FC
:100B30003149086000BF3048006800F40030009080
:100B40000198401C0190009818B90198B0F5A06F69
:100B5000F1D12948006800F4003010B10120009064
:100B600001E0002000900098012843D1234800684C
:100B700040F01000214908600846006820F003009A
:100B800008600846006840F0020008601A484068A3
:100B9000194948600846406848600846406840F483
:100BA000806048600846406820F47C104860084631
:100BB000406840F4E81048600846006840F08070E3
:100BC000086000BF0C48006800F000700028F9D0F1
:100BD0000948406820F0030007494860084640681B
:100BE00040F00200486000BF0348406800F00C007D
:100BF0000828F9D10CBD000000100240002002407E
:100C00007047000010B54FF4E13000F04DF84FF49C
:100C1000E13000F0DDF8FFF7C5FE02A000F058FA61
:100C200010BD000053797374656D20696E69746935
:100C3000616C697A6174696F6E2073756363656551
:100C40006465640A0000000010B51348006840F0B5
:100C500001001149086008464068104908400E49E3
:100C60004860084600680E4908400B49086008467D
:100C7000006820F4802008600846406820F4FE00E8
:100C800048604FF41F008860FFF745FF4FF0006099
:100C90000449086010BD0000001002400000FFF889
:100CA000FFFFF6FE08ED00E010B592B004464FF4E9
:100CB00000713E48FFF75FFA01210846FFF7E6FDA5
:100CC00001218803FFF7E2FD01210420FFF7DEFD8B
:100CD00001210846FFF7BAFD4FF40070ADF844005B
:100CE00018208DF8470003208DF8460011A93048E0
:100CF000FFF731FB4FF48060ADF8440004208DF81D
:100D0000470011A92A48FFF726FB0D940020ADF8F3
:100D10003800ADF83A00ADF83C00ADF840000C20CA
:100D2000ADF83E000DA9234800F060F925208DF8AC
:100D3000040001208DF807008DF8050000208DF8D3
:100D4000060001A8FFF748FD1B48FFF73FFA1948C6
:100D5000001D029000200690089014480390002087
:100D600009908020079000200C9004904FF40050D0
:100D70000B900011059020200A9002A90E48FFF761
:100D8000CBFA01210C48FFF715FA012240F2244169
:100D9000084800F005F901224021064800F0C0F89B
:100DA0000121044800F0B0F812B010BDA0000020EE
:100DB00000080140003801405800024010B540F2E0
:100DC0002441024800F0C2F810BD00000038014084
:100DD00010B592B004464FF400713D48FFF7CBF9CF
:100DE00001210846FFF752FD01214804FFF73EFDAF
:100DF00001210420FFF74AFD01210846FFF726FDE7
:100E00000420ADF8440018208DF8470003208DF829
:100E1000460011A92F48FFF79EFA0820ADF84400BC
:100E200004208DF8470011A92A48FFF794FA0D9481
:100E30000020ADF83800ADF83A00ADF83C00ADF850
:100E400040000C20ADF83E000DA9234800F0CEF87C
:100E500026208DF8040001208DF807008DF805008C
:100E60008DF8060001A8FFF7B7FC1C48FFF7AEF9A4
:100E70001948001D02900020069008901448039025
:100E8000002009908020079000200C9004904FF4DF
:100E900000500B900011059020200A9002A90F48E5
:100EA000FFF73AFA01210D48FFF784F9012240F2D9
:100EB0002441094800F074F801224021064800F05E
:100EC0002FF80121044800F01FF812B010BD0000F7
:100ED000A002002000080140004400406C000240D5
:100EE00010B540F22441024800F030F810BD000077
:100EF0000044004010B540F22441024800F026F8BA
:100F000010BD00000048004021B1828942F4005227
:100F1000828104E082894DF6FF731A408281704716
:100F20001AB1838A0B43838202E0838A8B438382D4
:100F3000704702460020B1F5007F00D100BF138842
:100F40000B400BB1012000E00020704770B5024655
:100F5000002400230025002040F66A16B14200D18B
:100F600000BFC1F3421501F01F03012606FA03F387
:100F7000012D02D19689334006E0022D02D1168A56
:100F8000334001E0968A33400C12012606FA04F43D
:100F90001688344013B10CB1012000E0002070BD70
:100FA000F0B50346002400260025002040F66A170D
:100FB000B94200D100BF1846C1F3421401F01F0628
:100FC000012707FA06F5012C01D10C3004E0022CB0
:100FD00001D1103000E014301AB107682F430760C8
:100FE00002E00768AF430760F0BD00002DE9F0475D
:100FF00086B005460E460024A24600BFA146002743
:10100000B08900B100BF2F462C8A4CF6FF70044017
:10101000F08804432C82AC894EF6F3100440B0886B
:1010200031890843718908430443AC81AC8A4FF687
:10103000FF400440B0890443AC8201A8FFF736FCAE
:101040001F48874202D1DDF810A001E0DDF80CA0B6
:10105000A88900F4004040B10AEBCA0000EB0A1076
:1010600031684900B0FBF1F807E00AEBCA0000EB79
:101070000A1031688900B0FBF1F86420B8FBF0F089
:1010800004012009642101FB1089A88900F40040B3
:1010900040B1322000EBC900B0FBF1F000F00700D6
:1010A000044308E0322000EB09106421B0FBF1F0AA
:1010B00000F00F0004432C8106B0BDE8F08700006B
:1010C00000380140C1F308028280704700BFFEE78C
:1010D000014A024900F013B87D1200089C0000206C
:1010E00002E008C8121F08C1002AFAD170477047F1
:1010F000002001E001C1121F002AFBD170472DE939
:10110000F04116460F460446002503E03946B04735
:10111000641C6D1C20780028F8D12846BDE8F081B9
:101120002DE9F84106460D46144600202070284659
:10113000E91705EB5171C910491E01F0FF080120A4
:1011400000FA08F000F0FF0800271BE020784010AC
:1011500020703146062000F0D3F800900221684646
:10116000FFF70EFCF088BDF80010884202D0012085
:10117000BDE8F881207840EA08002070083607F1C1
:101180000800C7B2AF42E1DB0020F1E738B5044602
:1011900020788DF800009DF8000013490978084375
:1011A0008DF8000060788DF801006946022000F09B
:1011B000A7F8054628128DF80200E8B28DF8030062
:1011C00010210A48FFF752F90A2000F036F8694664
:1011D000042000F0B1F80A2000F02FF81021034895
:1011E000FFF746F938BD0000140000200008014058
:1011F000014600224FF0E0239A6140F265424A43E3
:101200006FF07F4303EAC2024FF0E0235A611A46AF
:10121000126942F001021A6100BF4FF0E02210692A
:1012200000F001021AB100F48032002AF5D0002249
:101230004FF0E0231A619A617047014600224FF097
:10124000E0239A6101EBC10222F07F425A611A4603
:10125000126942F001021A6100BF4FF0E0221069EA
:1012600000F001021AB100F48032002AF5D0002209
:101270004FF0E0231A619A617047000070B5044690
:101280000D46E1B20548FFF71DFF00BF802103486E
:10129000FFF74FFE0028F9D0204670BD0044004003
:1012A00070B50446002500BF08E0012000F06CF88E
:1012B0004FF47A70FFF7C1FF681C85B2A542F4DBDA
:1012C000012000F061F870BD10B5012000F05CF85D
:1012D0004FF49670FFF7B1FF10BD0000FFF792FCCE
:1012E00007E0FFF70DF96420FFF782FF01A0FFF789
:1012F000EFFEF6E772756E206F6B210A00000000AA
:1013000030B503460C46102100220BE0A05C80EAB9
:10131000E110C5B2074830F8150080EA012081B21B
:10132000501C82B29A42F1DB4FF6FF7000EA410096
:1013300030BD0000B413000870B505460E46002409
:1013400004E0305DFFF784FB601CC4B2AC42F8DB04
:1013500070BD2DE9F04105460E461746984600241B
:1013600004E0285DFFF774FB601CC4B2B442F8DBF4
:10137000002405E0FF20FFF76BFB3855601CC4B26A
:101380004445F7DBBDE8F08170B5044600250CE06C
:1013900010210748FFF76AF8FF20FFF759FB1021DB
:1013A0000348FFF765F8681CC5B2A542F0DB70BDC5
:1013B00000080140000099C5ABCE320BCFD8561DB6
:1013C0006416FDD307F49E31AC3A35FFC82C51E9C1
:1013D00063E2FA2797AD0E683C63A5A65875C1B0C5
:1013E000F3BB6A7E9059099C3B97A2525F81C64429
:1013F000F44F6D8A2E5BB79E85951C50E18378462D
:101400004A4DD38829AFB06A82611BA4E6777FB2C8
:101410004DB9D47CB9F6203312388BFD762EEFEB24
:10142000DDE04425BE0227C715CC8C0971DAE81F20
:10143000DA1443D1C5F35C366E3DF7F80A2B93EE10
:10144000A1E53820C2075BC269C9F00C0DDF941A10
:10145000A6113FD4525ECB9BF99060559D86044304
:101460003648AF8D55AACC6FFE6467A19A7203B758
:1014700031BCA879EBA8726D4066D9A32470BDB5C4
:101480008FBE167BEC5C75994792DE572384BA4178
:10149000884A118F7C05E5C0D7CB4E0EB3DD2A18E4
:1014A000181381D67BF1E234D03F49FAB4292DECF0
:1014B0001FE7862213A28A67B86C21A9DC7A45BF90
:1014C00077B4EE7114568D93BF98265DDB8E424B38
:1014D0007040E985840F1DCA2FC1B6044BD7D212C4
:1014E000E01979DC83FB1A3E2835B1F04C23D5E6B0
:1014F000E7ED7E283DF9A43C96370FF2F2216BE42C
:1015000059EFC02A3A0DA3C891C30806F5D56C104F
:101510005E1BC7DEAA543391019A985F658CFC4923
:10152000CE425787ADA03465066E9FAB6278FBBD97
:10153000C9B65073D6514F947D9FE45A1989804C97
:10154000B2472B82D1A548607A6BE3AE1E7D87B887
:10155000B5B32C7641FCD839EA3273F78E2417E103
:1015600025EABC2F4608DFCDEDC6740389D01015DF
:10157000221EBBDBF80A61CF53C4CA0137D2AE17B3
:101580009C1C05D9FFFE663B5430CDF53026A9E3FF
:101590009BE8022D6FA7F662C4695DACA07F39BAE3
:1015A0000BB192746853F196C39D5A58A78B3E4E67
:1015B0000C459580D415000800000020A000000014
:1015C000E010000874160008A00000203010000091
:1015D000F0100008000000000102030401020304EF
:1015E0000607080902040608800000000000000049
:1015F0000000000004A60000000000000000000041
:101600003075000000000000000096420000F0C1AC
:1016100000000000000000000000000000000000CA
:1016200000000000000000000000000000000000BA
:1016300000000000000000000000000000000000AA
:10164000000000000000000000000000000000009A
:101650000100000000000000000000000000000089
:1016600000000000000000000000FF00000000007B
:041670000000000076
:0400000508000131BD
:00000001FF
